:060000000A128A110C280F
:10000800FE00030EF0000A08F1000A128A15F92F03
:100018000A128A110F28FA01FB0183120313EA015D
:10002800EB01EC0183160313A001A101A201A301B6
:10003800A401A501A601A701A801A90183010A122B
:100048008A11FF2DFF0000308A007F0882072B28C5
:100058000A128A11F32B8316031329080A128A112C
:100068002B250A128A11023083160313AC0045307F
:10007800AB00A930AA00AA0B3F28AB0B3F28AC0B5A
:100088003F282A300A128A11A7230A128A1102303D
:1000980083160313AC004530AB00A930AA00AA0BA5
:1000A8005328AB0B5328AC0B53289D300A128A11E6
:1000B800A7230A128A11023083160313AC004530B5
:1000C800AB00A930AA00AA0B6728AB0B6728AC0BBA
:1000D80067287B08831203139900023083160313E1
:1000E800AC004530AB00A930AA00AA0B7928AB0BAD
:1000F8007928AC0B79282E3083120313990002302B
:1001080083160313AC004530AB00A930AA00AA0B34
:100118008B28AB0B8B28AC0B8B287A088312031324
:100128009900023083160313AC004530AB00A930A8
:10013800AA00AA0B9D28AB0B9D28AC0B9D28831207
:1001480003136C089900023083160313AC00453082
:10015800AB00A930AA00AA0BAF28AB0BAF28AC0B99
:10016800AF28A0300A128A11A7230A128A11023076
:1001780083160313AC004530AB00A930AA00AA0BC4
:10018800C328AB0BC328AC0BC32828300A128A112A
:10019800A7230A128A118316031328080A128A1140
:1001A8002B250A128A11023083160313AC0045303E
:1001B800AB00A930AA00AA0BDF28AB0BDF28AC0BD9
:1001C800DF280B300A128A11A7230A128A1102307B
:1001D80083160313AC004530AB00A930AA00AA0B64
:1001E800F328AB0BF328AC0BF3289D300A128A11C5
:1001F800A7230A128A11023083160313AC00453074
:10020800AB00A930AA00AA0B0729AB0B0729AC0B36
:1002180007297B08831203139900023083160313FE
:10022800AC004530AB00A930AA00AA0B1929AB0BCA
:100238001929AC0B19292E308312031399000230A7
:1002480083160313AC004530AB00A930AA00AA0BF3
:100258002B29AB0B2B29AC0B2B297A088312031300
:100268009900023083160313AC004530AB00A93067
:10027800AA00AA0B3D29AB0B3D29AC0B3D298312E3
:1002880003136C089900023083160313AC00453041
:10029800AB00A930AA00AA0B4F29AB0B4F29AC0B16
:1002A8004F29A0300A128A11A7230A128A11023094
:1002B80083160313AC004530AB00A930AA00AA0B83
:1002C8006329AB0B6329AC0B632928300A128A1106
:1002D800A7230A128A118A300A128A11A7230A123E
:1002E8008A11831203138C1E7A297B2975291A080F
:1002F800D03E83160313AA002A0883120313EA00C8
:1003080033301A02031889298A29752976300A1286
:100318008A11A7230A128A11831203138C1E9529A6
:10032800962990291A08D03E83160313AA002A0892
:10033800A7000230831203136A06031DA429A52906
:10034800AB2936301A020318AA29AB299029613043
:100358000A128A11A7230A128A11831203138C1E08
:10036800B629B729B1291A08D03E83160313AA0063
:100378002A08A6000230831203136A06031DC52942
:10038800C629D6290530831603132706031DCD2950
:10039800CE29D6293630831203131A020318D52919
:1003A800D629B12983126A0883160313AA00AB0160
:1003B8002A0883120313BA00831603132B08831227
:1003C8000313BB00831603132708AC00AD012C08E8
:1003D80083120313BC00831603132D08831203131F
:1003E800BD000A128A11FA260A128A11831203130F
:1003F8003A0883160313AE002E08A4002408AA00A6
:10040800AB012A0883120313BA00831603132B08BF
:1004180083120313BB00831603132608AC00AD0137
:100428002C0883120313BC00831603132D088312B0
:100438000313BD000A128A11FA260A128A118312BE
:1004480003133B0883160313A100831203133A080E
:1004580083160313A000023083160313AC00453043
:10046800AB00A930AA00AA0B372AAB0B372AAC0B72
:10047800372A83160313210883120313B200831645
:100488000313200883120313B10048300A128A119B
:10049800A7230A128A11080083120313B0006F2BD6
:1004A80025302F060319592A5A2A802A300A84002F
:1004B800831300080319612A622A712A2F08A800E9
:1004C8002808F200300A840000080A128A1126203F
:1004D8000A128A1183120313532A2F08A80030081E
:1004E800840000088400280880000130A800300833
:1004F800840028088007532AAB010130A607FF3083
:10050800260784000A128A1100240A128A11AF00F1
:10051800A800A9012908003A0319932A6F2B280873
:10052800003A0319832B643A03199E2A0D3A0319DA
:100538009E2A6F2B2708840083130008A800023026
:100548008007280884000008AD00840A0008AE006F
:10055800AE1FAF2AB02AB92A0330A8002808AB0476
:10056800AD09AE09AD0A0319AE0AAF01AF0A2F08EB
:10057800A8002807013E84000A128A1100240A12E2
:100588008A11A9000A128A1100240A128A11AA00E3
:100598002A082E02031DD22A29082D020318D52A5B
:1005A800D62AD72AE12A0130A8002808AF07053043
:1005B8002F06031DE02AE12ABB2A2B080339031959
:1005C800E62AE72A0A2B300A840083130008031955
:1005D800EE2AEF2AFC2A2D30A8002808F200300A5B
:1005E800840000080A128A1126200A128A110A2B8E
:1005F8002D30A800300884000008840028088000F6
:100608000130A800300884002808800783120313EB
:100618002F08A8002808AC00642B0A30A00000307E
:10062800A1002C08A8002807013E84000A128A119C
:1006380000240A128A11F2000A128A1100240A12EE
:100648008A11F3002E08F5002D08F4000A128A1109
:10065800B6260A128A11730883120313A3007208BC
:10066800A2000A128A1137270A128A118312031369
:100678002008303EA9002908AF00300A84008313FF
:1006880000080319482B492B562B2F08A8002808C7
:10069800F200300A840000080A128A1126200A1281
:1006A8008A11642B2F08A8003008840000088400F1
:1006B800280880000130A800300884002808800736
:1006C800FF3083120313A8002808AC072C0A031D67
:1006D8006E2B6F2B112B013083120313A607FF30EB
:1006E800260784000A128A1100240A128A11A80017
:1006F8002808AF002F08031D822B832B542AA6013C
:10070800A701080083120313B6003608B4003408A2
:10071800B800B9013230B4003408B7003108B40069
:100728003408A6003730B5003508A70038300A125B
:100738008A1150220A128A1183120313380884007E
:1007480083138001080083120313B600B701013038
:10075800B3003308B8003130B3003308B5003608A9
:10076800B3003308A6003530B4003408A70037308A
:100778000A128A1150220A128A110800F5008316FB
:1007880003138712751DC92BCA2BCE2B740894002E
:100798008715D22B720874049400871175087304A6
:1007A8008312031394000800F300F2013A30730235
:1007B8000318DF2BE02BE82B30307302031CE52BEA
:1007C800E62BE82BF201F20A720C08000A128A11D1
:1007D800F9270A128A1183120313130808008312D7
:1007E80003130C1EF82BF92BF32B72089900080041
:1008000004308A000408840A82070034013400346A
:100810000A34003464340034E834033410342734A8
:100820000D342034563441344C344F345234203457
:10083000443445344C34203450344F3454344534EB
:100840004E34433449344F3445344D3454345234A7
:100850004F34203432343A3420340D3400340D34E3
:100860002034563441344C344F34523420344434E0
:1008700045344C34203450344F34543445344E34A1
:10088000433449344F344D344534543452344F3466
:10089000203431343A340D34003445346C3420344F
:1008A0006E3475346D34653472346F34203465348D
:1008B0006C3465346734693464346F34203465349F
:1008C00073343A34203425346434003449346E347B
:1008D000673472346534733461347234203455347F
:1008E0006E346934643461346434653473343A3456
:1008F00020340D34003449346E3467347234653436
:100900007334613472342034443465346334653470
:100910006E34613473343A3420340D340034493445
:100920006E34673472346534733461347234203415
:10093000433465346E34743465346E3461343A341F
:100940000D34003420342034003420345634003444
:1009500083120313A500B02C0130A0002008A507C6
:10096000250884002030831300060319B82CB92C05
:10097000AC2C25088400093000060319C02CC12CBA
:10098000AC2CA301A401A201250884002D3000068F
:10099000031DCB2CCC2CD52C0130A0002008A207A5
:1009A0000130A0002008A507072D250884002B3062
:1009B0000006031DDC2CDD2C072D0130A0002008D3
:1009C000A507072D83120313250884002408F300CC
:1009D0002308F2000A30F4000030F5000A128A11F0
:1009E000D4270A128A118313000872078312031393
:1009F000A0000030031801307307A1002008D03E8A
:100A0000A30021080318013EFF3EA400DD2C2508A9
:100A1000840000080A128A11D8230A128A110318C6
:100A2000122D132DE22C8312031322080319192D02
:100A30001A2D262D2309A0002409A100A00A0319BC
:100A4000A10A2008F8002108F9002A2D2408F9003D
:100A50002308F8000800F9003230F2000030F300FB
:100A6000790883120313A400A5012408F4002508C3
:100A7000F5000A128A1196250A128A117208831249
:100A80000313A6002608FB006430F2000030F300D8
:100A90007908A400A5012408F4002508F5000A122D
:100AA0008A115D260A128A11720883120313A600A6
:100AB0002608EB000A30F2000030F3006B08A400B7
:100AC000A5012408F4002508F5000A128A119625CC
:100AD0000A128A11720883120313A6002608FA006C
:100AE0000A30F2000030F3006B08A400A5012408CE
:100AF000F4002508F5000A128A115D260A128A11EF
:100B0000720883120313A6002608EC007B08303E0F
:100B1000A4002408FB007A08303EA4002408FA0050
:100B20006C08303EA4002408EC0008008312031374
:100B3000A101F31F9C2D9D2DA42DF209F309F20AAA
:100B40000319F30AA101A10AF51FA72DA82DB12DA4
:100B5000F409F509F40A0319F50A0130F6007608DC
:100B6000A106A201A301720873040319B82DB92DBF
:100B7000F02DA001A00AC72D01300310F20DF30DD6
:100B8000FF3E031DBD2D0130F6007608A007F31FC0
:100B9000CA2DCB2DBC2D01300310A20DA30DFF3E9D
:100BA000031DCC2D73087502031DD82D7208740225
:100BB000031CDB2DDC2DE32D7208F4027308031CEB
:100BC000F503F502221401300310F30CF20CFF3E82
:100BD000031DE42D0130A002031DEF2DF02DCB2DC0
:100BE00021080319F42DF52DFA2DA209A309A20A53
:100BF0000319A30A2308F3002208F20008000A12CE
:100C00008A1173270A128A11831203130711C7303E
:100C100083120313E9000C2EE90B0B2E0F2E0A3062
:100C20000A128A15F3270A128A110A128A11EA2374
:100C30000A128A1183120313E90069088316031349
:100C4000A900C73083120313E900262EE90B252ED5
:100C5000292E0A300A128A15F3270A128A110A125B
:100C60008A11EA230A128A1183120313E900690820
:100C700083160313A800C73083120313E900402E24
:100C8000E90B3F2E432EC73083120313E900482E91
:100C9000E90B472E4B2E8312031307150A128A11F4
:100CA0002F200A128A1183160313200883120313BC
:100CB0008600042E0A128A110C28F801F51F612EF5
:100CC000622E692EF409F509F40A0319F50AF801F0
:100CD000F80AF31F6C2E6D2E722EF209F309F20A38
:100CE0000319F30A720873040319772E782EA72EBE
:100CF000F701F70A862E01300310F20DF30DFF3EC7
:100D0000031D7C2E0130F6007608F707F31F892EAD
:100D10008A2E7B2E73087502031D902E72087402B2
:100D2000031C932E942E9A2E7208F4027308031C4F
:100D3000F503F50201300310F30CF20CFF3E031D26
:100D40009B2E0130F702031DA62EA72E8A2E7808AF
:100D50000319AB2EAC2EB12EF409F509F40A0319D0
:100D6000F50A7508F3007408F2000800F701F801AD
:100D7000720873040319BD2EBE2EF52EF901F90A6F
:100D8000CC2E01300310F20DF30DFF3E031DC22ED9
:100D90000130F6007608F907F31FCF2ED02EC12EB2
:100DA00001300310F70DF80DFF3E031DD12E73081F
:100DB0007502031DDD2E72087402031CE02EE12E65
:100DC000E82E7208F4027308031CF503F502771489
:100DD00001300310F30CF20CFF3E031DE92E01302D
:100DE000F902031DF42EF52ED02E7808F3007708B3
:100DF000F20008005E3083120313BE003E08B1000B
:100E00003B08B3003A08B20053300A128A11862315
:100E10000A128A115E3083120313BE003E08B1002D
:100E20003D08B3003C08B2003F300A128A11862305
:100E30000A128A113F3083120313BE003E08F200EB
:100E400053300A128A11AB270A128A1153300A1240
:100E50008A11A8240A128A11790883120313E80060
:100E60007808E7006808BB006708BA00080083122A
:100E700003132008210403193E2F3F2F6E2FA501D5
:100E8000A50A4D2F01300310A00DA10DFF3E031D3B
:100E9000432F0130A4002408A507A11F502F512F74
:100EA000422F21082302031D572F20082202031C72
:100EB0005A2F5B2F612F2008A2022108031CA303D5
:100EC000A30201300310A10CA00CFF3E031D622FF2
:100ED0000130A502031D6D2F6E2F512F2308A10095
:100EE0002208A000080083160317880189018316D1
:100EF00003130711860183120313860187018801FA
:100F00000715F201F301F40120300A128A11C223FD
:100F10000A128A1183160313181218158316031761
:100F20008711193083160313990001309A00831238
:100F3000031398171813181683160313181398160B
:100F4000831203138C120C12831603130F128F16C5
:100F50000F170F140800F4007408F3007308F5006D
:100F6000B52F0130F3007308F5077508840083136B
:100F70000008031DBC2FBD2FB12FC62F0130F30079
:100F80007308F5070130F3007308F2077208840054
:100F90000008F30075088400730880000008031D32
:100FA000D22FD32FBE2F0800F601F701721CD92FC4
:100FB000DA2FE02F7408F6070318F70A7508F70709
:100FC00001300310F40DF50DFF3E031DE12F01303C
:100FD0000310F30CF20CFF3E031DE82F720873049C
:100FE000031DF32FF42FD62F7708F3007608F200B5
:100FF000080083160313141CFE2FFF2FF92F08007F
:101FE600F2007208831203139300080071088A0036
:0A1FF600700E8300FE0E7E0E09003F
:04400E00D420FF3F7C
:00000001FF
